:100000000E28FF3FFF3FFF3FFE00030EF4000408F1
:10001000F5000A08F6007F08F7003C2C0F28C126DF
:10002000D000C226D100C326D200C426D300C526E4
:10003000D400C626D500C726D600C826D700C926B4
:10004000D800CA26D900CB26DA00CC26DB008313E1
:10005000A0308400BA30CD263C3084005030CD260C
:10006000793084007E30CD2683013628A0308A2660
:10007000AD308A26B7013708503E84008001013038
:10008000FF007F08B7073708803A783E031C3B28FB
:10009000FF30D800F530D900DA30DA0026268B1789
:1000A0000B138B160B128B110B118B100B108C1367
:1000B0000C138C120C120C118C100C1083168C1358
:1000C0000C138C120C120C118C100C1081170113D4
:1000D000811601168115011181100110FF30831264
:1000E00081008E018F0191010630900095019601EB
:1000F000970107309F0083169F018312980180307B
:100100008316980083129813F930831685008312A2
:10011000850183168601FF3083128600C001C1016C
:10012000C401CE01C501C201C301CD01CB01033021
:10013000CA00BC01BD01C901C801262683120313F0
:10014000C701BA010D30A0003A089F26A03EBB00AF
:100150003B08033E840083130008B6003B08043EBE
:100160008400000836060319C6283B08043E8400B4
:1001700000083B07B6003608053E8400AA3000069A
:10018000031DC6283B088400033080003B08840020
:100190000003031DCE283B08D7249B293B0884007D
:1001A00002300006031DD7283B089F239B293B08EC
:1001B000840003300006031D912903304A06031909
:1001C000E5284A083A06031D91290130C2070318A1
:1001D000C30A0030C307013043024E300319420204
:1001E000031CA3293B08033E84000008B6003B081B
:1001F000043E840000083606031916293B08043E15
:10020000840000083B07B6003608053E840000085D
:10021000B9003B08043E84000008013E0739FF0096
:100220003B08043E84007F0880001829FF30B90095
:100230004B08031D232903304A06031D8E293A0863
:10024000CA00CD018C294B03031D5C294D08C73E14
:1002500084000022CC00AA304C06031D542908302B
:100260004D06031D3C293B08840002308000FF300E
:10027000BC000030BD0050293A08DB003B08840078
:100280008001800AB8010830380203185029380864
:10029000503E840080010130FF007F08B8074329E9
:1002A000CB010330CA00A3294C08A0004A084D2501
:1002B000023083120313692902304B06031D6B2998
:1002C000FE30390603198C29FC30390603198C29B4
:1002D0000330CB008E2903304B06031D8E29F230EC
:1002E0004C06031D812983303906031988293908F2
:1002F00003197E2903303906031D88290230CD00F9
:1003000088294C0A031D8829AA303906031DA32910
:100310000130FF007F08CD07CB01CB0AC201C3012A
:10032000A3293B08033E84000008FF003B08043E6D
:1003300084007F0880000130FF007F08BA07023088
:100340003A02031CA228400841040319C1290130C4
:10035000C0020030031CC103C10240084104031D58
:10036000B529A00100305D26BF29C83040064104F0
:10037000031DC129A501A50A4408A025C401C70180
:10038000C70A0130BE070318BF0A0030BF0701309B
:100390003F024E3003193E02031CF129460803199F
:1003A000F1294F1CD5290130D902CF1CDB2901309E
:1003B000FF007F08D9074F1DE1290130FF007F08AA
:1003C000DA07CF1DE5290130DA024F1EEC29FE3095
:1003D000FF007F08D805ED295814BE01BF01C701F1
:1003E000C70A47080319F529262664009E28FF3FFF
:1004000002308A000408840A82070034FF34FF3473
:10041000FF34FF34FF34FF34FF34FF34FF34FF3444
:10042000FF34FF34FF34FF349C34FF34FF34FF3497
:10043000FF34FF34FF3402340334FF34FF345B34C1
:100440000834093401340A340B344C34C0341834C1
:100450001034113412341B34133453345C340734E5
:100460002034193422341A342334633464341F346E
:10047000273426342134253424345434A03406342B
:1004800017341E341D341C341434FF34FF349F34AD
:10049000163415340D3404340C34FF34C13497341D
:1004A000A0340E348D3405349E3483348B3493342D
:1004B0009C349B34E5348E34A334A6344B34FF345F
:1004C0000634DD34A434D134A73494348C348434E9
:1004D0009634C934D934E13444348834853403340F
:1004E0009A341B341C34A2349834C0340434973406
:1004F0000B342334243414344334FF34FF3496341F
:1005000013349E34A7340C34FF34FF344E3461343A
:10051000553462345D3463344C3467345234683457
:1005200041346A3449346D344A346E340E344834BC
:10053000543464345B3465340034003400340034A3
:10054000003400340034003400340034003400340B
:1005500000340034003400340034003400340034FB
:100560001134083414341334703417346C341834A0
:100570007D34193471341F34693420347A3427348B
:10058000753428346B342F34723430347434373447
:100590004A3438345A343934F234FF34AA34F43417
:1005A000E834F3343C340034AA3454345B346334D8
:1005B0006434653448345D340034093412345934B9
:1005C00014341334113408346B3474347534723485
:1005D000733404340334AE0080302E020318080054
:1005E0002B30A0004E30A100D930A2000630A3006D
:1005F000A4012E30E3252B30A0004F30A100DF30C6
:10060000A2000630A3004608A4002E30E325773070
:100610002E06031D152B2B080319152B4608031D49
:10062000132B0130142B0030C6004E080C3903196F
:10063000292B4E0830390319292B1F302E06031D94
:10064000292B2B080319292BFB30FF007F08D80525
:100650002A2B58154E080C3903193A2B7E302E06DA
:10066000031D3A2B2B0803193A2BF730FF007F08A4
:10067000D8053B2BD8154E080C39031D422BA00181
:100680000F305D264E080339031D492BA0010030B1
:100690005D26AD012D08813E840000222E06031D3B
:1006A0006E2B4E0803390319582B450803195C2B90
:1006B00045082E06031D692B2B080319622B2E08F3
:1006C000C500632BC5012D08823E84000022AE00C8
:1006D000772B45080319772BAE01772B0230FF00EB
:1006E0007F08AD072D08803A573E031C4A2BAC010A
:1006F0002C08D03E840000222E06031D912B2B08CF
:100700000319912B40084104031D8F2B2E08C400B0
:100710009030C0000130C1006F30AE009A2BAE01A6
:100720009A2B0130FF007F08AC072C08803A783EF6
:10073000031C782B2B08A5002E08A0250800A30079
:100740002308033E840000084906031DAE2B013038
:10075000BC070318BD0A0030BD0708002308033E8C
:1007600084000008C90000303D020B3003193C0230
:10077000031CC72B2308033E84000008FF3E0739F3
:10078000FF002308043E84007F088000C801BC01EC
:10079000BD010130FF007F08C80703304802031C79
:1007A00008002308043E840000082307A000200856
:1007B000053E84000008A1002308043E84000008D0
:1007C000013E0739FF002308043E84007F088000B3
:1007D000211CEF2BFE30FF007F08D805F02B5814AA
:1007E000A11CF72BFD30FF007F08D805F82BD8148B
:1007F0002308043E840000082307A0002008053ECB
:1008000084000008FF007F08D9072308043E840005
:100810000008013E0739FF002308043E84007F08DA
:1008200080002308043E840000082307A00020085D
:10083000053E84000008FF007F08DA072308043E15
:1008400084000008013E0739FF002308043E8400AD
:100850007F0880000330C802A2012208503E8400B5
:1008600080010130FF007F08A20708302202031C2C
:100870002D2CC701C70A08008B1A0B1DCC2C023087
:100880007D06031D702C08307A020318582C7C1C3E
:100890004D2C831203138515502C831203138511DD
:1008A0007C080139FF007F08FB060310FC0C6B2C51
:1008B00008307A06031D662C7B1C622C83120313FE
:1008C00085156B2C8312031385116B2CF93083165D
:1008D00003138500FD010130FF007F08FA07C72CD4
:1008E0007D03031DAB2C08307A0203187F2C031004
:1008F000FC0C83120313851D6B2CFC176B2C08302A
:100900007A0603196B2C09307A06031DC72C0D30AB
:10091000F0007908B026A03EF8007808033E840075
:10092000831300087807F3007308053E84007C08F1
:1009300080007808033E84000008013E0739FF006C
:100940007808033E84007F088000FD01F93083169B
:1009500003138500C72C7D08031DC72C83120313C6
:10096000051E8519C72CFA01FC01FD01FD0A0030A6
:1009700005180130F900F83083168500791CC42C65
:10098000831203130514C72C8312031305100B11D4
:10099000FF308312031381007708FF0076088A0076
:1009A00075088400740E8300FE0E7E0E0900B500EB
:1009B0003508033E84000008AF003508043E84007B
:1009C00000082F06031908003508043E84000008BB
:1009D0003507AF002F08053E84000008B400350835
:1009E000043E84000008013E0739FF003508043E3C
:1009F00084007F0880003508023E84000008031947
:100A0000182DB3013308AB3E840000223406031DC9
:100A10000E2D3308AC3E84000022282D0230FF004A
:100A20007F08B3073308803A653E0318292D022D4D
:100A3000833034060319232D3408AF00B0012F088A
:100A4000B1003008262D3F30B1000030B20031082F
:100A5000B400F0303406031D312D350A84008001C6
:100A60000800E0303406031D3B2D3508023E8400AB
:100A70008001800A0800350A84000008AB003408B1
:100A8000EB22C701C70A350A840083138001800A5C
:100A90003508023E840080010800A2008B12200865
:100AA000FC00FB01FB0AFA010230FD008515E03075
:100AB000831685008312221C612D831203130514F3
:100AC000642D83120313051085150512423083121D
:100AD0000313A100A10B6A2D831203138511F030BB
:100AE00083168500FF30831281000B118B16A30142
:100AF000A401063083120313A100A10B7D2D7D08F4
:100B000003198C2D0130FF007F0883120313A40703
:100B10000A302402031C792D7D080319992D013018
:100B2000FF007F0883120313A3070A302302031C6C
:100B3000782D063083120313A100A10B9D2D080010
:100B4000A900FF30AA00A7014E0803390319AD2DF3
:100B50004508031DAD2DA701A70A2708A6004E08CA
:100B60000C390319B52D0130B62D0030A8008030A6
:100B700029020318C02D2908013E84000022AA0082
:100B80002A0A0319D72D2508A0002A085D262A1F46
:100B9000CB2D0130CC2D0030FF007F08A604AA1F0A
:100BA000D32D0130D42D0030FF007F08A804250884
:100BB000031908002608A00000305D262808A000C0
:100BC0000F305D260800A600A7012308270203189E
:100BD00008002708220784000022A50026088400B8
:100BE000831300082506031D212E20088400000819
:100BF00003190A2E0130A500270A002E0310A50DA7
:100C0000FF3E031DFE2D2508FF00210884007F08FC
:100C100080041A2E0130A500270A102E0310A50DFE
:100C2000FF3E031D0E2E2508FF3AFF002108840019
:100C30007F08800524080319080026088400800125
:100C400008000130FF007F08A707E52D0515851076
:100C5000D5268514D5268510D526A401051524088A
:100C6000803A783E031C3F2E2408503E84008313B4
:100C70000008A000A1012008A2002108492E240894
:100C8000503E840083130008A000A1012009A200A7
:100C90002109A30022088600D5260511D5260515B1
:100CA000D5260130FF007F08A4072408803A753E4E
:100CB000031C2E2EFF3086000800A4000130A10086
:100CC0002408A20003300310A20CFF3E031D632E74
:100CD00022080739013E6E2E0310A10DFF3E031DB1
:100CE0006C2E2108A30020080319802E2308FF0082
:100CF00024080739503E84007F08831380040800CD
:100D00002309FF0024080739503E84007F0883131D
:100D100080050800A000200A84008001800A2008C5
:100D2000023E840080012008043E840080012008E7
:100D3000033E840080012008840080010800A20096
:100D4000A101221CA72E2008FF007F08A107031085
:100D5000A00D0310A20C2208031DA12E21080800DB
:100D6000F200F101721CB82E7008FF007F08F10735
:100D70000310F00D0310F20C7208031DB22E71085F
:100D800008000034003400340034003400340034EF
:100D900000340734F534DA34033464008001840A03
:100DA0000406031900340406CE2E0800FF3FFF3F5F
:08400000FF3FFF3FFF3FFF3FC0
:02400E00FF3F72
:00000001FF
